{
  "_format": "hh-sol-artifact-1",
  "contractName": "Raffle",
  "sourceName": "contracts/Raffle.sol",
  "abi": [
    {
      "inputs": [
        {
          "internalType": "address",
          "name": "vrfCoordinatorV2",
          "type": "address"
        },
        {
          "internalType": "uint64",
          "name": "subscriptionId",
          "type": "uint64"
        },
        {
          "internalType": "bytes32",
          "name": "gasLane",
          "type": "bytes32"
        },
        {
          "internalType": "uint256",
          "name": "interval",
          "type": "uint256"
        },
        {
          "internalType": "uint256",
          "name": "entranceFee",
          "type": "uint256"
        },
        {
          "internalType": "uint32",
          "name": "callbackGasLimit",
          "type": "uint32"
        }
      ],
      "stateMutability": "nonpayable",
      "type": "constructor"
    },
    {
      "inputs": [
        {
          "internalType": "address",
          "name": "have",
          "type": "address"
        },
        {
          "internalType": "address",
          "name": "want",
          "type": "address"
        }
      ],
      "name": "OnlyCoordinatorCanFulfill",
      "type": "error"
    },
    {
      "inputs": [],
      "name": "Raffle__RaffleNotOpen",
      "type": "error"
    },
    {
      "inputs": [],
      "name": "Raffle__SendMoreToEnterRaffle",
      "type": "error"
    },
    {
      "inputs": [],
      "name": "Raffle__TransferFailed",
      "type": "error"
    },
    {
      "inputs": [
        {
          "internalType": "uint256",
          "name": "currentBalance",
          "type": "uint256"
        },
        {
          "internalType": "uint256",
          "name": "numPlayers",
          "type": "uint256"
        },
        {
          "internalType": "uint256",
          "name": "raffleState",
          "type": "uint256"
        }
      ],
      "name": "Raffle__UpkeepNotNeeded",
      "type": "error"
    },
    {
      "anonymous": false,
      "inputs": [
        {
          "indexed": true,
          "internalType": "address",
          "name": "player",
          "type": "address"
        }
      ],
      "name": "RaffleEnter",
      "type": "event"
    },
    {
      "anonymous": false,
      "inputs": [
        {
          "indexed": true,
          "internalType": "uint256",
          "name": "requestId",
          "type": "uint256"
        }
      ],
      "name": "RequestedRaffleWinner",
      "type": "event"
    },
    {
      "anonymous": false,
      "inputs": [
        {
          "indexed": true,
          "internalType": "address",
          "name": "player",
          "type": "address"
        }
      ],
      "name": "WinnerPicked",
      "type": "event"
    },
    {
      "inputs": [
        {
          "internalType": "bytes",
          "name": "",
          "type": "bytes"
        }
      ],
      "name": "checkUpkeep",
      "outputs": [
        {
          "internalType": "bool",
          "name": "upkeepNeeded",
          "type": "bool"
        },
        {
          "internalType": "bytes",
          "name": "",
          "type": "bytes"
        }
      ],
      "stateMutability": "view",
      "type": "function"
    },
    {
      "inputs": [],
      "name": "enterRaffle",
      "outputs": [],
      "stateMutability": "payable",
      "type": "function"
    },
    {
      "inputs": [],
      "name": "getEntranceFee",
      "outputs": [
        {
          "internalType": "uint256",
          "name": "",
          "type": "uint256"
        }
      ],
      "stateMutability": "view",
      "type": "function"
    },
    {
      "inputs": [],
      "name": "getInterval",
      "outputs": [
        {
          "internalType": "uint256",
          "name": "",
          "type": "uint256"
        }
      ],
      "stateMutability": "view",
      "type": "function"
    },
    {
      "inputs": [],
      "name": "getLastTimeStamp",
      "outputs": [
        {
          "internalType": "uint256",
          "name": "",
          "type": "uint256"
        }
      ],
      "stateMutability": "view",
      "type": "function"
    },
    {
      "inputs": [],
      "name": "getNumWords",
      "outputs": [
        {
          "internalType": "uint256",
          "name": "",
          "type": "uint256"
        }
      ],
      "stateMutability": "pure",
      "type": "function"
    },
    {
      "inputs": [],
      "name": "getNumberOfPlayers",
      "outputs": [
        {
          "internalType": "uint256",
          "name": "",
          "type": "uint256"
        }
      ],
      "stateMutability": "view",
      "type": "function"
    },
    {
      "inputs": [
        {
          "internalType": "uint256",
          "name": "index",
          "type": "uint256"
        }
      ],
      "name": "getPlayer",
      "outputs": [
        {
          "internalType": "address",
          "name": "",
          "type": "address"
        }
      ],
      "stateMutability": "view",
      "type": "function"
    },
    {
      "inputs": [],
      "name": "getRaffleState",
      "outputs": [
        {
          "internalType": "enum Raffle.RaffleState",
          "name": "",
          "type": "uint8"
        }
      ],
      "stateMutability": "view",
      "type": "function"
    },
    {
      "inputs": [],
      "name": "getRecentWinner",
      "outputs": [
        {
          "internalType": "address",
          "name": "",
          "type": "address"
        }
      ],
      "stateMutability": "view",
      "type": "function"
    },
    {
      "inputs": [],
      "name": "getRequestConfirmations",
      "outputs": [
        {
          "internalType": "uint256",
          "name": "",
          "type": "uint256"
        }
      ],
      "stateMutability": "pure",
      "type": "function"
    },
    {
      "inputs": [
        {
          "internalType": "bytes",
          "name": "",
          "type": "bytes"
        }
      ],
      "name": "performUpkeep",
      "outputs": [],
      "stateMutability": "nonpayable",
      "type": "function"
    },
    {
      "inputs": [
        {
          "internalType": "uint256",
          "name": "requestId",
          "type": "uint256"
        },
        {
          "internalType": "uint256[]",
          "name": "randomWords",
          "type": "uint256[]"
        }
      ],
      "name": "rawFulfillRandomWords",
      "outputs": [],
      "stateMutability": "nonpayable",
      "type": "function"
    }
  ],
  "bytecode": "0x6101606040523480156200001257600080fd5b5060405162001b1438038062001b148339818101604052810190620000389190620001ad565b858073ffffffffffffffffffffffffffffffffffffffff1660808173ffffffffffffffffffffffffffffffffffffffff1660601b81525050508573ffffffffffffffffffffffffffffffffffffffff1660a08173ffffffffffffffffffffffffffffffffffffffff1660601b815250508360e081815250508261012081815250508467ffffffffffffffff1660c08167ffffffffffffffff1660c01b815250508161014081815250506000600360006101000a81548160ff021916908360018111156200010a5762000109620002b5565b5b0217905550426000819055508063ffffffff166101008163ffffffff1660e01b815250505050505050506200036b565b6000815190506200014b81620002e9565b92915050565b600081519050620001628162000303565b92915050565b60008151905062000179816200031d565b92915050565b600081519050620001908162000337565b92915050565b600081519050620001a78162000351565b92915050565b60008060008060008060c08789031215620001cd57620001cc620002e4565b5b6000620001dd89828a016200013a565b9650506020620001f089828a0162000196565b95505060406200020389828a0162000151565b94505060606200021689828a0162000168565b93505060806200022989828a0162000168565b92505060a06200023c89828a016200017f565b9150509295509295509295565b6000620002568262000267565b9050919050565b6000819050919050565b600073ffffffffffffffffffffffffffffffffffffffff82169050919050565b6000819050919050565b600063ffffffff82169050919050565b600067ffffffffffffffff82169050919050565b7f4e487b7100000000000000000000000000000000000000000000000000000000600052602160045260246000fd5b600080fd5b620002f48162000249565b81146200030057600080fd5b50565b6200030e816200025d565b81146200031a57600080fd5b50565b620003288162000287565b81146200033457600080fd5b50565b620003428162000291565b81146200034e57600080fd5b50565b6200035c81620002a1565b81146200036857600080fd5b50565b60805160601c60a05160601c60c05160c01c60e0516101005160e01c610120516101405161172d620003e7600039600081816102fa01526103f70152600081816107ed01526109920152600061069c01526000610658015260006106790152600061061c015260008181610337015261038b015261172d6000f3fe6080604052600436106100c25760003560e01c806353a2c19a1161007f57806391ad27b41161005957806391ad27b414610238578063c1c244e814610263578063e55ae4e81461028e578063fd6673f5146102cb576100c2565b806353a2c19a146101a45780635f1b0fd8146101cf5780636e04ff0d146101fa576100c2565b806309bc33a7146100c7578063115cbaf5146100f25780631fe543e31461011d5780632cfcc539146101465780634585e33b14610150578063473f1ddc14610179575b600080fd5b3480156100d357600080fd5b506100dc6102f6565b6040516100e991906112e8565b60405180910390f35b3480156100fe57600080fd5b5061010761031e565b604051610114919061129d565b60405180910390f35b34801561012957600080fd5b50610144600480360381019061013f9190611058565b610335565b005b61014e6103f5565b005b34801561015c57600080fd5b5061017760048036038101906101729190610f68565b610564565b005b34801561018557600080fd5b5061018e610764565b60405161019b91906111d6565b60405180910390f35b3480156101b057600080fd5b506101b961078e565b6040516101c691906112e8565b60405180910390f35b3480156101db57600080fd5b506101e461079d565b6040516101f191906112e8565b60405180910390f35b34801561020657600080fd5b50610221600480360381019061021c9190610fb5565b6107aa565b60405161022f92919061121a565b60405180910390f35b34801561024457600080fd5b5061024d61098e565b60405161025a91906112e8565b60405180910390f35b34801561026f57600080fd5b506102786109b6565b60405161028591906112e8565b60405180910390f35b34801561029a57600080fd5b506102b560048036038101906102b09190610ffe565b6109bf565b6040516102c291906111d6565b60405180910390f35b3480156102d757600080fd5b506102e0610a07565b6040516102ed91906112e8565b60405180910390f35b60007f0000000000000000000000000000000000000000000000000000000000000000905090565b6000600360009054906101000a900460ff16905090565b7f000000000000000000000000000000000000000000000000000000000000000073ffffffffffffffffffffffffffffffffffffffff163373ffffffffffffffffffffffffffffffffffffffff16146103e757337f00000000000000000000000000000000000000000000000000000000000000006040517f1cf993f40000000000000000000000000000000000000000000000000000000081526004016103de9291906111f1565b60405180910390fd5b6103f18282610a14565b5050565b7f000000000000000000000000000000000000000000000000000000000000000034101561044f576040517f3038c00a00000000000000000000000000000000000000000000000000000000815260040160405180910390fd5b60006001811115610463576104626115de565b5b600360009054906101000a900460ff166001811115610485576104846115de565b5b146104bc576040517fd24a271400000000000000000000000000000000000000000000000000000000815260040160405180910390fd5b6002339080600181540180825580915050600190039060005260206000200160009091909190916101000a81548173ffffffffffffffffffffffffffffffffffffffff021916908373ffffffffffffffffffffffffffffffffffffffff1602179055503373ffffffffffffffffffffffffffffffffffffffff167f0805e1d667bddb8a95f0f09880cf94f403fb596ce79928d9f29b74203ba284d460405160405180910390a2565b600061057e604051806020016040528060008152506107aa565b509050806105ed5747600280549050600360009054906101000a900460ff1660018111156105af576105ae6115de565b5b6040517f584327aa0000000000000000000000000000000000000000000000000000000081526004016105e493929190611303565b60405180910390fd5b6001600360006101000a81548160ff02191690836001811115610613576106126115de565b5b021790555060007f000000000000000000000000000000000000000000000000000000000000000073ffffffffffffffffffffffffffffffffffffffff16635d3b1d307f00000000000000000000000000000000000000000000000000000000000000007f000000000000000000000000000000000000000000000000000000000000000060037f000000000000000000000000000000000000000000000000000000000000000060016040518663ffffffff1660e01b81526004016106dd95949392919061124a565b602060405180830381600087803b1580156106f757600080fd5b505af115801561070b573d6000803e3d6000fd5b505050506040513d601f19601f8201168201806040525081019061072f919061102b565b9050807fcd6e45c8998311cab7e9d4385596cac867e20a0587194b954fa3a731c93ce78b60405160405180910390a250505050565b6000600160009054906101000a900473ffffffffffffffffffffffffffffffffffffffff16905090565b6000600163ffffffff16905090565b6000600361ffff16905090565b600060606000600360009054906101000a900460ff1660018111156107d2576107d16115de565b5b600060018111156107e6576107e56115de565b5b14905060007f00000000000000000000000000000000000000000000000000000000000000006000544261081a91906113ff565b1190506000806002805490501190506000804711905061086f6040518060400160405280601281526020017f526166666c65205374617465204f70656e3a000000000000000000000000000081525085610c47565b6108ae6040518060400160405280600c81526020017f54696d65205061737365643a000000000000000000000000000000000000000081525084610c47565b6108ed6040518060400160405280600c81526020017f48617320506c61796572733a000000000000000000000000000000000000000081525083610c47565b61092c6040518060400160405280600c81526020017f4861732042616c616e63653a000000000000000000000000000000000000000081525082610c47565b8280156109365750835b801561093f5750805b80156109485750815b9550856040518060400160405280600381526020017f30783000000000000000000000000000000000000000000000000000000000008152509550955050505050915091565b60007f0000000000000000000000000000000000000000000000000000000000000000905090565b60008054905090565b6000600282815481106109d5576109d461160d565b5b9060005260206000200160009054906101000a900473ffffffffffffffffffffffffffffffffffffffff169050919050565b6000600280549050905090565b600060028054905082600081518110610a3057610a2f61160d565b5b6020026020010151610a42919061154f565b9050600060028281548110610a5a57610a5961160d565b5b9060005260206000200160009054906101000a900473ffffffffffffffffffffffffffffffffffffffff16905080600160006101000a81548173ffffffffffffffffffffffffffffffffffffffff021916908373ffffffffffffffffffffffffffffffffffffffff160217905550600067ffffffffffffffff811115610ae357610ae261163c565b5b604051908082528060200260200182016040528015610b115781602001602082028036833780820191505090505b5060029080519060200190610b27929190610d29565b506000600360006101000a81548160ff02191690836001811115610b4e57610b4d6115de565b5b02179055504260008190555060008173ffffffffffffffffffffffffffffffffffffffff1647604051610b80906111c1565b60006040518083038185875af1925050503d8060008114610bbd576040519150601f19603f3d011682016040523d82523d6000602084013e610bc2565b606091505b5050905080610bfd576040517fa1d04b3900000000000000000000000000000000000000000000000000000000815260040160405180910390fd5b8173ffffffffffffffffffffffffffffffffffffffff167f5b690ec4a06fe979403046eaeea5b3ce38524683c3001f662c8b5a829632f7df60405160405180910390a25050505050565b610cdf8282604051602401610c5d9291906112b8565b6040516020818303038152906040527fc3b55635000000000000000000000000000000000000000000000000000000007bffffffffffffffffffffffffffffffffffffffffffffffffffffffff19166020820180517bffffffffffffffffffffffffffffffffffffffffffffffffffffffff8381831617835250505050610ce3565b5050565b610cfa81610cf2610cfd610d1e565b63ffffffff16565b50565b60006a636f6e736f6c652e6c6f679050600080835160208501845afa505050565b610db3819050919050565b828054828255906000526020600020908101928215610da2579160200282015b82811115610da15782518260006101000a81548173ffffffffffffffffffffffffffffffffffffffff021916908373ffffffffffffffffffffffffffffffffffffffff16021790555091602001919060010190610d49565b5b509050610daf9190610dbd565b5090565b610dbb61166b565b565b5b80821115610dd6576000816000905550600101610dbe565b5090565b6000610ded610de88461135f565b61133a565b90508083825260208201905082856020860282011115610e1057610e0f6116a4565b5b60005b85811015610e405781610e268882610f3e565b845260208401935060208301925050600181019050610e13565b5050509392505050565b6000610e5d610e588461138b565b61133a565b905082815260208101848484011115610e7957610e786116a9565b5b610e848482856114dc565b509392505050565b600082601f830112610ea157610ea061169f565b5b8135610eb1848260208601610dda565b91505092915050565b60008083601f840112610ed057610ecf61169f565b5b8235905067ffffffffffffffff811115610eed57610eec61169a565b5b602083019150836001820283011115610f0957610f086116a4565b5b9250929050565b600082601f830112610f2557610f2461169f565b5b8135610f35848260208601610e4a565b91505092915050565b600081359050610f4d816116e0565b92915050565b600081519050610f62816116e0565b92915050565b60008060208385031215610f7f57610f7e6116b3565b5b600083013567ffffffffffffffff811115610f9d57610f9c6116ae565b5b610fa985828601610eba565b92509250509250929050565b600060208284031215610fcb57610fca6116b3565b5b600082013567ffffffffffffffff811115610fe957610fe86116ae565b5b610ff584828501610f10565b91505092915050565b600060208284031215611014576110136116b3565b5b600061102284828501610f3e565b91505092915050565b600060208284031215611041576110406116b3565b5b600061104f84828501610f53565b91505092915050565b6000806040838503121561106f5761106e6116b3565b5b600061107d85828601610f3e565b925050602083013567ffffffffffffffff81111561109e5761109d6116ae565b5b6110aa85828601610e8c565b9150509250929050565b6110bd81611433565b82525050565b6110cc81611445565b82525050565b6110db81611451565b82525050565b60006110ec826113bc565b6110f681856113d2565b93506111068185602086016114eb565b61110f816116b8565b840191505092915050565b611123816114ca565b82525050565b6000611134826113c7565b61113e81856113ee565b935061114e8185602086016114eb565b611157816116b8565b840191505092915050565b600061116f6000836113e3565b915061117a826116c9565b600082019050919050565b61118e8161146e565b82525050565b61119d8161149c565b82525050565b6111ac816114a6565b82525050565b6111bb816114b6565b82525050565b60006111cc82611162565b9150819050919050565b60006020820190506111eb60008301846110b4565b92915050565b600060408201905061120660008301856110b4565b61121360208301846110b4565b9392505050565b600060408201905061122f60008301856110c3565b818103602083015261124181846110e1565b90509392505050565b600060a08201905061125f60008301886110d2565b61126c60208301876111b2565b6112796040830186611185565b61128660608301856111a3565b61129360808301846111a3565b9695505050505050565b60006020820190506112b2600083018461111a565b92915050565b600060408201905081810360008301526112d28185611129565b90506112e160208301846110c3565b9392505050565b60006020820190506112fd6000830184611194565b92915050565b60006060820190506113186000830186611194565b6113256020830185611194565b6113326040830184611194565b949350505050565b6000611344611355565b9050611350828261151e565b919050565b6000604051905090565b600067ffffffffffffffff82111561137a5761137961163c565b5b602082029050602081019050919050565b600067ffffffffffffffff8211156113a6576113a561163c565b5b6113af826116b8565b9050602081019050919050565b600081519050919050565b600081519050919050565b600082825260208201905092915050565b600081905092915050565b600082825260208201905092915050565b600061140a8261149c565b91506114158361149c565b92508282101561142857611427611580565b5b828203905092915050565b600061143e8261147c565b9050919050565b60008115159050919050565b6000819050919050565b6000819050611469826116cc565b919050565b600061ffff82169050919050565b600073ffffffffffffffffffffffffffffffffffffffff82169050919050565b6000819050919050565b600063ffffffff82169050919050565b600067ffffffffffffffff82169050919050565b60006114d58261145b565b9050919050565b82818337600083830152505050565b60005b838110156115095780820151818401526020810190506114ee565b83811115611518576000848401525b50505050565b611527826116b8565b810181811067ffffffffffffffff821117156115465761154561163c565b5b80604052505050565b600061155a8261149c565b91506115658361149c565b925082611575576115746115af565b5b828206905092915050565b7f4e487b7100000000000000000000000000000000000000000000000000000000600052601160045260246000fd5b7f4e487b7100000000000000000000000000000000000000000000000000000000600052601260045260246000fd5b7f4e487b7100000000000000000000000000000000000000000000000000000000600052602160045260246000fd5b7f4e487b7100000000000000000000000000000000000000000000000000000000600052603260045260246000fd5b7f4e487b7100000000000000000000000000000000000000000000000000000000600052604160045260246000fd5b7f4e487b7100000000000000000000000000000000000000000000000000000000600052605160045260246000fd5b600080fd5b600080fd5b600080fd5b600080fd5b600080fd5b600080fd5b6000601f19601f8301169050919050565b50565b600281106116dd576116dc6115de565b5b50565b6116e98161149c565b81146116f457600080fd5b5056fea2646970667358221220fafef17879110792cffae9ca03384efae75a0be0d43170fbcd70208279e5875664736f6c63430008070033",
  "linkReferences": {},
  "deployedLinkReferences": {}
}